S01200006C65645F6D61747269782E73726563E9
S11300000C942A000C943F000C943F000C943F0085
S11300100C943F000C943F000C943F000C943F0060
S11300200C943F000C943F000C943F000C943F0050
S11300300C943F000C943F000C943F000C943F0040
S11300400C943F000C943F000C943F000C943F0030
S11300500C943F0011241FBECFE5D8E0DEBFCDBF16
S113006011E0A0E6B0E0E4E0F1E002C005900D92FA
S1130070A033B107D9F70E9441000C9480000C947E
S113008000008FEF8ABB81BB60E070E080E090E00D
S113009040E050E025C021E030E0082E02C0220FED
S11300A0331F0A94E2F72BBB60FD07C0FC01E05A42
S11300B0FF4F2081209522BB02C02FEF22BBE3EF2C
S11300C0F1E03197F1F700C0000001968770907855
S11300D0992324F40197886F9F6F01964F5F5F4FB8
S11300E04A3F5105C4F26F5F7F4F67707078772382
S11300F07CF661507109686F7F6F6F5F7F4FC8CF67
S1070100F894FFCF9D
S11301040018247E424200000038283028380000B9
S1130114001820202018000000382424243800006B
S1130124003C2038203C0000003C20382020000003
S1130134003840405C543400000024243C2424004F
S1130144000038101010380000380808281800007F
S113015400242830302824000020202020380000E7
S1130164000022362A2222000022322A26220000FB
S1130174001C222222221C000038242438202000BF
S1130184003C42424A443A00003C242438282400D7
S1130194003C20201804043C007C101010100000C3
S11301A400222222221C00000000008142241800A4
S11301B400414141495522000000442810284400CC
S11301C40000442810101000003C040810203C00D7
S9030000FC
